:020000040000FA
:0600000035EF1FF01200B5
:0600080004EF08F01200F5
:060018000CEF08F01200DD
:0610000035EF1FF01200A5
:021006001200D6
:061008001CEF08F01200CD
:02100E000000E0
:021010000000DE
:0610180098EF08F0120041
:02101E000200CE
:101020000E100000F500000004000000B73E0000B4
:081030008001000074000000C3
:08103800BDEC15F0F6CFE4FF5A
:10104000F7CFE4FFF5CFE4FFF3CFE4FFF4CFE4FF05
:10105000FACFE4FF00EE00F0140EE80403E3EECF55
:10106000E4FFFBD700EE14F0060EE80403E3EECF36
:10107000E4FFFBD7E652C6EC15F0E652F2A434D0FA
:10108000F294500ED66EFB0ED76E0101D52B640E76
:10109000D55D14E3D56BDF6A060EDF5C0FE2DF502F
:1010A000EA6AC30FE96E010EEA22EF50E66ED3EC56
:1010B00015F0E552E750EF6EDF2AEED7DF6A060E35
:1010C000DF5C12E2D3EC15F0EF500101D55D02E3D5
:1010D000E66A02D0010EE66EDF28E66EE3EC1CF055
:1010E000E552E552DF2AEBD7E552E552E7CFD9FFCB
:1010F000E55200EE19F0060EE80403E3E5CFEDFF3C
:10110000FBD700EE13F0140EE80403E3E5CFEDFF88
:10111000FBD7E5CFFAFFE5CFF4FFE5CFF3FFE5CF4F
:10112000F5FFE5CFF7FFE5CFF6FFDAEC15F011009C
:10113000D8CFE4FFE0CFE4FFE46EBDEC15F0F3CFD1
:10114000E4FFF4CFE4FFE652C6EC15F0020EE12610
:10115000DF6A9EA037D09E90200ECE6ED10ECF6E4D
:101160000101D62B000ED723D6C11AF0D7C11BF030
:101170001C6AD8901C50000A06E6600E1A5CEA0E43
:101180001B58000E1C5802E3D66BD76B9D2BDA2B35
:10119000000EDB23E80EDA5D030EDB5913E3DA6B96
:1011A000DB6B010EDB6A060EB6EC15F00BE2CBEC46
:1011B00015F0EF50000803E2CBEC15F0EF06010E3E
:1011C000DB2AF1D7020EE15C02E2E16AE552E16E50
:1011D000E552E7CFD9FFE552E5CFF4FFE5CFF3FFC6
:1011E000DAEC15F0E550E5CFE0FFE5CFD8FF1000D1
:1011F00004D882EC16F085D8FCD70F0EC11202D8A5
:101200001DEF16F0C6EC15F0030EE126020EDB6AA8
:10121000896A8A6A8B6A926A936A010E946E7E6A00
:101220007F6AF18E0101866B876B886B896B020187
:10123000396B796B9F0EE66ED9EC1EF0E552500EBD
:10124000D66EFB0ED76EC50EE66EB8EC1EF0E552FC
:10125000200ECE6ED10ECF6E040ECA6EDF6A060E61
:10126000DF5C30E2010EDB6A090EB6EC15F013E22A
:10127000010EDBCFE6FF090EDF02F350100FE5523F
:10128000E724A0EC15F08DEC15F0020EDBCFEFFF9C
:10129000010EDB2AE9D7ABEC15F0EF50070810E29E
:1012A000ABEC15F0EF6ADE52010EDD6E090EB6EC06
:1012B00015F006E28DEC15F0EF6A010EDB2AF6D789
:1012C000DF2ACDD7500EA0EC15F0DB50040802E267
:1012D000020EDB6A020EDBCFD8F1D08EF184F28AE7
:1012E0009F909D80F28CF28E0101010ED96F030E4A
:1012F000E15C02E2E16AE552E16EE552E7CFD9FF37
:101300001200D9CFE6FFE1CFD9FF050EE12696EC1A
:101310001CF001019E5101019D5DE76E030EE7CFB8
:10132000DBFFDF6A060EDF5C13E2030EDB50146E98
:10133000156AEA6ADF34FE0BEA36E96E910EE92699
:10134000010EEA221450EE261550ED22DF2AEAD7CC
:1013500001019D51146E156A153404E21450FA0807
:10136000000E155402E201019D6B9DC19EF1010129
:10137000D851020A16E0030A07E0010A01E01ED074
:101380000101010E8A6F1AD00001F50504E1010187
:10139000010E8A6F05D00101010ED96F01018A6B20
:1013A0000DD00001F55104E10101010E8A6F05D055
:1013B0000101010ED96F01018A6B00D00101D9052D
:1013C00041E10101D96BDF6A060EDF5C3BE2DF50D1
:1013D000EA6A8B0FE96E010EEA22EF6AEA6ADF34ED
:1013E000FE0BEA36E96E910EE926010EEA22EE6A5C
:1013F000ED6ADF50EA6AAB0FE96E010EEA22EF6A8E
:10140000DF50EA6ABD0FE96E010EEA22EF6ADF5093
:10141000090DF3CFE9FFF4CFEAFF6C0EE926000EC9
:10142000EA22020EE926000EEA22EF50E66EDF50B5
:10143000EA6ADC0FE96E010EEA22E552E750EF6E30
:10144000DF2AC2D7DF6A060EDF5C02E34FEF12F03D
:10145000010EDB6A090EF36E010EDBCFF4FFF350D1
:10146000F45C21E2DF50090DF3CF14F0F4CF15F056
:101470006C0E1426000E1522010EDB500F011424F1
:10148000E96E000E1520EA6EEF50E66E010EDB509D
:10149000EA6AA20FE96E000EEA22E552E750EF6E0B
:1014A000010EDB2AD7D7040EDB6ADF50EA6ADC0FB5
:1014B000E96E010EEA22EF5015E10001A3510CE0A4
:1014C000DF50EA6A8B0FE96E010EEA22EFCF14F0CB
:1014D0000001A351145C05E2010EF36E040EF3CF7C
:1014E000DBFF20D0DF50EA6A8B0FE96E010EEA22A3
:1014F000EF6AEA6ADF34FE0BEA36E96E910EE926FE
:10150000010EEA22EE6AED6ADF50EA6AAB0FE96E7D
:10151000010EEA22EF6ADF50EA6ABD0FE96E010EA2
:10152000EA22EF6A010EDF5206E0DFCFF3FFE84662
:10153000FE0BF306FCE10101E21502E1040EDB6A99
:1015400001018A5103E0040EDB5007E1DF50EA6A33
:10155000C30FE96E010EEA22EF6A01018A0502E07B
:101560002DEF12F0040EDB0402E02DEF12F000016B
:10157000A251070A02E13FEF11F0010A02E1A4EFD4
:101580000FF0030A01E15FD3010A01E171D1070AFB
:1015900001E1D0D0010A33E0030A0DE0010A02E0C4
:1015A0002CEF12F0DF50EA6AC30FE96E010EEA2257
:1015B000EF6A2CEF12F0A5C0B7F0150E0001B75D71
:1015C00014E20001B751F76AA20FF66E3E0EF72241
:1015D0000800F550E66EDF50EA6AC30FE96E010EAF
:1015E000EA22E552E750EF6E08D0DF50EA6AC30FF7
:1015F000E96E010EEA22640EEF6E2CEF12F000018C
:10160000A7510001B16FB26BB1C015F0146A0001AF
:10161000A65100011424B16F000E1520B26F000115
:10162000A9510001B36FB46BB3C015F0146A000187
:10163000A85100011424B36F000E1520B46FA5C08B
:10164000B7F0EA6ADF34FE0BEA36E96E910EE9265E
:10165000010EEA22EECF14F0EFCF15F00001145086
:10166000B15D1550B25921E3150E0001B75D14E2CA
:101670000001B751F76AA20FF66E3E0EF72208007E
:10168000F550E66EDF50EA6AC30FE96E010EEA22FA
:10169000E552E750EF6E08D0DF50EA6AC30FE96EFB
:1016A000010EEA22640EEF6E43D0EA6ADF34FE0BCD
:1016B000EA36E96E910EE926010EEA22EECF14F029
:1016C000EFCF15F000010001B1510001B325166EF6
:1016D00000010001B2510001B421176E1650145CD4
:1016E0001750155808E2DF50EA6AC30FE96E010E81
:1016F000EA22EF6A1DD0DF50EA6A8B0FE96E010E15
:10170000EA22EFCF14F0FF0E145C07E2DF50EA6A22
:101710008B0FE96E010EEA22EF2AEA6ADF34FE0B34
:10172000EA36E96E910EE926010EEA22EE6AED6ACA
:101730002CEF12F00001A7510001B16FB26BB1C0E4
:1017400015F0146A0001A65100011424B16F000EB7
:101750001520B26F0001A9510001B36FB46BB3C083
:1017600015F0146A0001A85100011424B36F000E93
:101770001520B46FA5C0B7F0EA6ADF34FE0BEA3675
:10178000E96E910EE926010EEA22EECF14F0EFCFBA
:1017900015F000011450B15D1550B25924E3EA6A06
:1017A000DF34FE0BEA36E96E910EE926010EEA22DD
:1017B000EECFE6FFEFCFE6FFB1C0E6FFB2C0E6FF37
:1017C000B7C0E6FF7AEC14F0146E050EE15E14501B
:1017D0000001B76FDF50EA6AC30FE96E010EEA221B
:1017E000B7C0EFFF43D0EA6ADF34FE0BEA36E96E9A
:1017F000910EE926010EEA22EECF14F0EFCF15F09C
:1018000000010001B1510001B325166E0001000175
:10181000B2510001B421176E1650145C17501558C0
:1018200008E2DF50EA6AC30FE96E010EEA22EF6AAE
:101830001DD0DF50EA6A8B0FE96E010EEA22EFCF6E
:1018400014F0FF0E145C07E2DF50EA6A8B0FE96EBA
:10185000010EEA22EF2AEA6ADF34FE0BEA36E96E6D
:10186000910EE926010EEA22EE6AED6A2CEF12F0E3
:10187000040E0001A503F3CFB7F0150E0001B75D0C
:101880000BE20001B751F76AA20FF66E3E0EF72287
:101890000800F5CFE3F103D00101640EE36FA6C0A9
:1018A000B8F0010E0001B85D06E30A0E146E0001E7
:1018B000B851145C03E20001050EB86FDF50EA6A0C
:1018C000AB0FE96E010EEA22EF5001E093D0DF503A
:1018D000EA6AAB0FE96E010EEA22010EEF6E00011B
:1018E000B851146E156A960E086E096A14C00DF090
:1018F00015C00EF03FEC1EF006C0B1F007C0B2F00C
:101900000001DC0ED880B157050EB2570A0E000157
:10191000D880B855010F0A0DF3CF15F00A0E146EDA
:1019200014C00EF0CCCF09F043EC1FF005281502CF
:10193000F3500001B36FB46B00010001B15100011D
:10194000B325146E00010001B2510001B421156EDF
:10195000EA6ADF34FE0BEA36E96E9F0EE926010ED5
:10196000EA2214C0EEFF15C0EDFFE3C10EF0CCCFAC
:1019700009F043EC1FF00528E66EDF50EA6ACF0F4E
:10198000E96E010EEA22E552E750EF6E0A0E146E80
:1019900014C00EF0CCCF09F043EC1FF00528140D55
:1019A000F3500001AB6FAC6B0A0E0001D880B85544
:1019B000010F166E176AABC008F0ACC009F016C074
:1019C0000DF017C00EF06CEC1EF006C014F007C04E
:1019D00015F0C80E1426000E1522EA6ADF34FE0B3D
:1019E000EA36E96EB10EE926010EEA2214C0EEFFD6
:1019F00015C0EDFFEA6ADF34FE0BEA36E96E910EA0
:101A0000E926010EEA22EECF14F0EFCF15F0EA6AD4
:101A1000DF34FE0BEA36E96EB10EE926010EEA224A
:101A2000EECF16F0EFCF17F01450165C1550175884
:101A300001E2BBD0EA6ADF34FE0BEA36E96EB10E92
:101A4000E926010EEA22EECFABF0EFCFACF0030EA9
:101A50000D6E0E6AABC008F0ACC009F00FEC1FF0C1
:101A600008C0ABF009C0ACF0DF50EA6ACF0FE96EF6
:101A7000010EEA22EF500101E35D0001BA6FEA6A4C
:101A8000DF34FE0BEA36E96E910EE926010EEA22FA
:101A9000EECF14F0EFCF15F000011450AB5D1550F0
:101AA000AC5933E30001BA51186E196AEA6ADF349F
:101AB000FE0BEA36E96E910EE926010EEA22EECF20
:101AC00016F0EFCF17F016C008F017C009F018C0D5
:101AD0000DF019C00EF06CEC1EF006C014F007C03B
:101AE00015F014C008F015C009F0ABC00DF0ACC083
:101AF0000EF00FEC1FF0030E08C0DBFF030EDB50EF
:101B00000101E35D0001B76F3AD0EA6ADF34FE0BF2
:101B1000EA36E96E910EE926010EEA220001AB5188
:101B2000EE5C0001AF6F0001AC51EE580001B06FE8
:101B30000001BA51166E176AAFC008F0B0C009F0C4
:101B400016C00DF017C00EF06CEC1EF006C014F0BD
:101B500007C015F014C008F015C009F0ABC00DF0B7
:101B6000ACC00EF00FEC1FF0030E08C0DBFF030E3D
:101B7000DB500001BA5D0101E35D0001B76F0001B8
:101B8000B751640809E2DF50EA6AC30FE96E010E3B
:101B9000EA22640EEF6E08D0DF50EA6AC30FE96EE6
:101BA000010EEA22B7C0EFFF4CD0EA6ADF34FE0B29
:101BB000EA36E96E910EE926010EEA22EECF14F024
:101BC000EFCF15F0EA6ADF34FE0BEA36E96E9F0EBE
:101BD000E926010EEA22EECF16F0EFCF17F01650ED
:101BE000145C1750155809E2DF50EA6AC30FE96E1A
:101BF000010EEA22E3C1EFFF24D0DF50EA6A8B0F27
:101C0000E96E010EEA22EFCF14F0FF0E145C07E23A
:101C1000DF50EA6A8B0FE96E010EEA22EF2AEA6AC8
:101C2000DF34FE0BEA36E96E910EE926010EEA2258
:101C3000EE6AED6ADF50EA6AAB0FE96E010EEA2246
:101C4000EF6A2CEF12F0A5C0B7F0150E0001B75DDA
:101C50000BE20001B751F76AA20FF66E3E0EF722B3
:101C60000800F5CFE3F103D00101640EE36FA6C0D5
:101C7000B8F0010E0001B85D06E3050E146E000118
:101C8000B851145C03E20001030EB86FDF50EA6A3A
:101C9000AB0FE96E010EEA22EF5001E07BD0DF507E
:101CA000EA6AAB0FE96E010EEA22010EEF6E000147
:101CB000B851146E156AF40E086E010E096E14C048
:101CC0000DF015C00EF03FEC1EF006C0B1F007C0DD
:101CD000B2F00001AC0ED880B1570D0EB2571E0EF7
:101CE000156E15C00EF0CCCF09F043EC1FF005289F
:101CF000146EB8C00EF014C009F043EC1FF0095088
:101D0000640DF3500001B36FB46B00010001B151D9
:101D10000001B325146E00010001B2510001B4218D
:101D2000156EEA6ADF34FE0BEA36E96E9F0EE9268D
:101D3000010EEA2214C0EEFF15C0EDFF050E146E71
:101D400014C00EF0CCCF09F043EC1FF00550E66E46
:101D5000DF50EA6ABD0FE96E010EEA22E552E75054
:101D6000EF6E320E146E14C00EF0CCCF09F043ECBF
:101D70001FF005280A0DF350E66EEA6ADF34FE0B09
:101D8000EA36E96E600EE926000EEA22E552E750D7
:101D9000EE6EED6AEA6ADF34FE0BEA36E96E910E0A
:101DA000E926010EEA22EECF14F0EFCF15F0EA6A31
:101DB000DF34FE0BEA36E96E600EE926000EEA22F9
:101DC000EECF16F0EFCF17F01450165C15501758E1
:101DD0003AE3EA6ADF34FE0BEA36E96E600EE92682
:101DE000000EEA22EECFABF0EFCFACF0010E0F0BFE
:101DF000000105E0D890AC33AB33E806FBE1EA6ABA
:101E0000DF34FE0BEA36E96E910EE926010EEA2276
:101E1000EECF14F0EFCF15F000011450AB5D15506C
:101E2000AC5909E3DF50EA6AC30FE96E010EEA22FA
:101E3000E3C1EFFF07D0DF50EA6AC30FE96E010E7E
:101E4000EA22EF6A80D0EA6ADF34FE0BEA36E96EF6
:101E5000910EE926010EEA22EECF14F0EFCF15F035
:101E6000EA6ADF34FE0BEA36E96E9F0EE926010EC0
:101E7000EA22EECF16F0EFCF17F01650145C175091
:101E800015583DE2DF50EA6ABD0FE96E010EEA2205
:101E9000EF5000082BE2DF50EA6ABD0FE96E010E39
:101EA000EA22EF060A0E146E14C00EF0CCCF09F031
:101EB00043EC1FF00528640DF350E66EEA6ADF3448
:101EC000FE0BEA36E96E600EE926000EEA22E552C4
:101ED000E750EE6EED6AEA6ADF34FE0BEA36E96E31
:101EE000910EE926010EEA22EE6AED6ADF50EA6AF7
:101EF000C30FE96E010EEA22010EEF6E24D0DF500F
:101F0000EA6A8B0FE96E010EEA22EFCF14F0FF0EA2
:101F1000145C07E2DF50EA6A8B0FE96E010EEA22D9
:101F2000EF2AEA6ADF34FE0BEA36E96E910EE92603
:101F3000010EEA22EE6AED6ADF50EA6AAB0FE96E43
:101F4000010EEA22EF6A88D2A5C0B7F0150E000193
:101F5000B75D0BE20001B751F76AA20FF66E3E0EB5
:101F6000F7220800F5CFE3F103D00101640EE36F1F
:101F7000040EDB0401E082D1DF50EA6AAB0FE96EA8
:101F8000010EEA22EF5001E09AD0DF50EA6AAB0F6F
:101F9000E96E010EEA22010EEF6E0001A605E66E63
:101FA000DF50EA6ABD0FE96E010EEA22E552E75002
:101FB000EF6E0001A8510001B16FB26BB1C015F016
:101FC000146A0001A75100011424B16F000E1520FE
:101FD000B26FEA6ADF34FE0BEA36E96E9F0EE9263D
:101FE000010EEA22B1C0EEFFB2C0EDFF0001AA511E
:101FF0000001B16FB26BB1C015F0146A0001A951B4
:1020000000011424B16F000E1520B26FC80E00013C
:10201000156AB125146EB2511522EA6ADF34FE0B3F
:10202000EA36E96EB10EE926010EEA2214C0EEFF8F
:1020300015C0EDFFEA6ADF34FE0BEA36E96E600E8A
:10204000E926000EEA22C80EEE6EED6AEA6ADF3477
:10205000FE0BEA36E96E600EE926000EEA22EECFAC
:1020600014F0EFCF15F0EA6ADF34FE0BEA36E96EC2
:102070009F0EE926010EEA22EECF16F0EFCF17F001
:102080001450165C155017581AE2EA6ADF34FE0B3A
:10209000EA36E96E9F0EE926010EEA22EECF14F031
:1020A000EFCF15F0EA6ADF34FE0BEA36E96E600E18
:1020B000E926000EEA2214C0EEFF15C0EDFFEA6A21
:1020C000DF34FE0BEA36E96E910EE926010EEA22B4
:1020D000EECF14F0EFCF15F0EA6ADF34FE0BEA36EC
:1020E000E96E600EE926000EEA22EECF16F0EFCF81
:1020F00017F01450165C155017583AE3EA6ADF34AB
:10210000FE0BEA36E96E600EE926000EEA22EECFFB
:10211000ABF0EFCFACF0010E0F0B000105E0D89053
:10212000AC33AB33E806FBE1EA6ADF34FE0BEA3698
:10213000E96E910EE926010EEA22EECF14F0EFCF00
:1021400015F000011450AB5D1550AC5909E3DF5098
:10215000EA6AC30FE96E010EEA22E3C1EFFF07D07E
:10216000DF50EA6AC30FE96E010EEA22EF6A86D0F9
:10217000DF50EA6ABD0FE96E010EEA22EF50000857
:1021800032E2EA6ADF34FE0BEA36E96E910EE926A6
:10219000010EEA22EECF14F0EFCF15F0EA6ADF3439
:1021A000FE0BEA36E96E9F0EE926010EEA22EECF1B
:1021B00016F0EFCF17F01650145C1750155812E3B5
:1021C000DF50EA6ABD0FE96E010EEA22EF06EA6A05
:1021D000DF34FE0BEA36E96E910EE926010EEA22A3
:1021E000EE6AED6A4BD0EA6ADF34FE0BEA36E96E3E
:1021F000910EE926010EEA22EECF14F0EFCF15F092
:10220000EA6ADF34FE0BEA36E96EB10EE926010E0A
:10221000EA22EECF16F0EFCF17F01650145C1750ED
:10222000155808E2DF50EA6AC30FE96E010EEA2290
:10223000EF6A24D0DF50EA6A8B0FE96E010EEA22C2
:10224000EFCF14F0FF0E145C07E2DF50EA6A8B0F49
:10225000E96E010EEA22EF2AEA6ADF34FE0BEA3663
:10226000E96E910EE926010EEA22EE6AED6ADF5070
:10227000EA6AAB0FE96E010EEA22EF6AEDD0DF5099
:1022800004E0030EDF5C01E0E6D0DF50EA6AAB0F4A
:10229000E96E010EEA22EF501EE1DF50EA6AAB0F51
:1022A000E96E010EEA22010EEF6EDF50EA6AC30FFB
:1022B000E96E010EEA22EF6ADF28EA6AC30FE96ECF
:1022C000010EEA22EF6A020EDF24EA6AC30FE96E0A
:1022D000010EEA22EF6AA5C0B7F0A6C0B8F00A0E58
:1022E0000001D880B855146E156A640E086E096A2C
:1022F00014C00DF015C00EF06CEC1EF006C0B1F06D
:1023000007C0B2F0640E0001B127000E0001B22335
:102310000001B36BB46BEA6ADF34FE0BEA36E96E98
:10232000910EE926010EEA22EECF14F0EFCF15F060
:1023300000011450B15D1550B2592AE3EA6ADF3446
:10234000FE0BEA36E96E910EE926010EEA22EECF87
:10235000E6FFEFCFE6FFB1C0E6FFB2C0E6FFB7C0D1
:10236000E6FFC8DA146E050EE15E14500001B76F87
:10237000DF50EA6ABD0FE96E010EEA22EF50DF245A
:10238000EA6AC30FE96E010EEA22B7C0EFFF63D01D
:10239000EA6ADF34FE0BEA36E96E910EE926010E99
:1023A000EA22EECF14F0EFCF15F000010001B15199
:1023B0000001B325166E00010001B2510001B421E5
:1023C000176E1650145C175015580FE2DF50EA6A6A
:1023D000BD0FE96E010EEA22EF50DF24EA6AC30F57
:1023E000E96E010EEA22EF6A36D0EA6ADF34FE0BAC
:1023F000EA36E96E910EE926010EEA22EE6AED6AEE
:10240000DF50EA6ABD0FE96E010EEA22EF2ADF50C3
:10241000EA6ABD0FE96E010EEA22EFCF14F0030E57
:10242000145C19E3DF50EA6ABD0FE96E010EEA227F
:10243000EF6ADF50EA6A8B0FE96E010EEA22EFCFF6
:1024400014F0FF0E145C07E2DF50EA6A8B0FE96EAE
:10245000010EEA22EF2A00D01FD0070E0001A25D74
:102460001BE1DF5003E0030EDF5C16E1DF50EA6A98
:10247000C30FE96E010EEA22EF6ADF28EA6AC30F92
:10248000E96E010EEA22EF6A020EDF24EA6AC30F48
:10249000E96E010EEA22EF6ADF2A23EF0AF0200E2E
:1024A0000001E76EBD19E8AE02D0E73402D0E75074
:1024B000BD5D03E36450020B01E012D201018651BD
:1024C000871102E1000E08D086C1E9FF87C1EAFF4B
:1024D000EF50800B01E0010E000901E001D2020182
:1024E0003951400A01E1BFD1150A01E1ABD1670AB8
:1024F00001E11DD1030A01E1C6D0010A49E0660AE3
:1025000001E0DBD10201560E796FDF6A050EDF5C58
:1025100013E2DF50EA6A800FE96E010EEA22EF5003
:10252000E66EDF28EA6A790FE96E020EEA22E552CA
:10253000E750EF6EDF2AEAD7DF28EA6A790FE96E03
:10254000020EEA22EF6A01018851891102E1000EB0
:1025500008D088C1E9FF89C1EAFFEF50800B01E094
:10256000010E000914E1400EE66E790EE66E020ED1
:10257000E66E010EE66E010EE66E3BEC17F0146E91
:10258000050EE15E1450F3CF88F1F4CF89F195D1B7
:102590000201300E796F02017A6B010EF36E030EA9
:1025A000F3CFDBFFDF6A060EDF5C30E2010EDB6A91
:1025B000090EF36E010EDBCFF4FFF350F45C24E25E
:1025C000DF50090DF3CF14F0F4CF15F06C0E142684
:1025D000000E1522010EDB500F011424E96E000ECF
:1025E0001520EA6EEF50E66E030EDBCFF3FFDB2A19
:1025F000F350EA6A790FE96E020EEA22E552E750DB
:10260000EF6E010EDB2AD4D7DF2ACDD7030EDBCF46
:10261000F3FFDB2AF350EA6A790FE96E020EEA2231
:10262000D8C1EFFF030EDBCFF3FFDB2AF350EA6ADA
:10263000790FE96E020EEA22E2C1EFFF0101885133
:10264000891102E1000E08D088C1E9FF89C1EAFFC3
:10265000EF50800B01E0010E000914E1400EE66E20
:10266000790EE66E020EE66E010EE66E010EE66E65
:102670003BEC17F0146E050EE15E1450F3CF88F1B9
:10268000F4CF89F11AD10201310E796F02017A6B10
:10269000550E02013A5D24E1AA0E02013B5D20E1E4
:1026A000FF0E02013C5D1CE1AA0E02013D5D18E136
:1026B000550E02013E5D14E102013F5104080DE395
:1026C0003FC2D8F1D8C1E6FF500EE66EE66A98EC3C
:1026D0001EF0E552E552E55202D002017A6902D0BD
:1026E00002017A6901018851891102E1000E08D0C6
:1026F00088C1E9FF89C1EAFFEF50800B01E0010EBC
:10270000000914E1400EE66E790EE66E020EE66EEA
:10271000010EE66E010EE66E3BEC17F0146E050E30
:10272000E15E1450F3CF88F1F4CF89F1C6D00201F5
:10273000320E796F02017A6B550E02013A5D5BE150
:10274000AA0E02013B5D57E1FF0E02013C5D53E121
:10275000AA0E02013D5D4FE1550E02013E5D4BE1C7
:10276000060E02013F5D44E202014051070840E3CA
:10277000DF6A090EDF5C36E2070EDF24EA6A390FF2
:10278000E96E020EEA22EF50E66E02013F51090D9A
:10279000F3CF14F0F4CF15F06C0E1426000E1522B2
:1027A000DF500F011424E96E000E1520EA6EE55289
:1027B000E750EF6E070EDF24EA6A390FE96E020E6A
:1027C000EA22EF50E66E090E02013F03F350100FAC
:1027D000DF24E66EE66A98EC1EF0E552E552E5521B
:1027E000DF2AC7D749C2E2F10101010ED96F02D039
:1027F00002017A6902D002017A69010188518911C6
:1028000002E1000E08D088C1E9FF89C1EAFFEF505C
:10281000800B01E0010E000914E1400EE66E790E16
:10282000E66E020EE66E010EE66E010EE66E3BEC03
:1028300017F0146E050EE15E1450F3CF88F1F4CF5B
:1028400089F13BD06492646ADF6AFF0EDF5C09E2C3
:10285000E868E85004E0E80600D000D0FAD7DF2AA4
:10286000F4D7FF002AD00201400E796FF5C07AF24A
:1028700001018851891102E1000E08D088C1E9FFE9
:1028800089C1EAFFEF50800B01E0010E000914E15D
:10289000400EE66E790EE66E020EE66E010EE66EF4
:1028A000010EE66E3BEC17F0146E050EE15E14505F
:1028B000F3CF88F1F4CF89F100D0400EE66E390EE7
:1028C000E66E020EE66EE66A010EE66E3BEC17F06F
:1028D000146E050EE15E1450F3CF86F1F4CF87F14C
:1028E000050EE15C02E2E16AE552E16EE552E7CFF6
:1028F000D9FF12004BD9070EE126DF6A150EF36EE1
:10290000FE0EDBCFF4FFF350F45C0AE2FE0EDB5068
:10291000F76AA20FF66E3E0EF7220800F55001D0BE
:10292000640EDF6E020E146E156AFC0EDBCF08F02B
:10293000FD0E5FD96FD9D950010F63D95BE2FA0E52
:10294000DBCF14F0FB0EDBCF15F0010EDBCF16F062
:10295000020EDBCF17F01450165C155017580CE31D
:10296000CDD802E2C2D801D05CD92BD931D9050E1D
:10297000DBCF0DF0060E28D0C1D802E2B6D801D0C8
:1029800050D91FD9050EDBCF18F0060EDBCF19F09A
:10299000010EDB50185C166E020EDB501958176ED4
:1029A00047D9DBCF09F01650085C146E1750095850
:1029B000156E030E14C0DBFF040E15C0DBFF08D933
:1029C000030EDBCF0DF0040EDBCF0EF06CEC1EF02F
:1029D00006C016F007C017F006C008F007C009F0DF
:1029E000010EDBCF0DF0020EDBCF0EF00FEC1FF06F
:1029F0000850DF6EDF50640802E2640EDF6EDF50C5
:102A0000146E070EE15C02E2E16AE552E16E1450D9
:102A1000E552E7CFD9FF1200120012001200120097
:102A20002DEF1DF012001E0EE66E010EE66E17EC85
:102A300017F0E552E552120064840001080EBB6FE6
:102A4000070EBC6FBB07000EBC5BBB51BC11FAE1AB
:102A500064941200D9CFE6FFE1CFD9FFFD0EDBCFA2
:102A600008F0FE0EDBCF09F0720E081801E10950E4
:102A700033E0E868081802E17F0E09182BE0740EB5
:102A8000081801E1095024E0750E081801E1095009
:102A90001DE0730E081801E1095016E0030E081836
:102AA00001E109500FE0020E081801E1095008E0A9
:102AB000010E081801E1095001E010D0B4DF0FD079
:102AC000B1DF0DD0ADDF0BD0A9DF09D0A5DF07D076
:102AD000A4DF05D0A4DF03D0000001D000D0010E98
:102AE00000D0E552E7CFD9FF1200A2D878D892D80B
:102AF000FA0EDBCF08F0FB0EEFEF15F0320E146E7E
:102B0000156A96D876D8030E08C0DBFF040E09C0FC
:102B1000DBFFD950030F01EF16F0DF50090DF3CFA3
:102B200014F0F4CF15F06C0E1426000E1522010ED1
:102B3000DB500F011424E96E000E1520EA6E12001E
:102B4000E66EE66A8AEC1EF0E552E552E76E020E8A
:102B5000E7CFDBFF1200DF50090DF3CFE9FFF4CF21
:102B6000EAFF6C0EE926000EEA221200F36E010E57
:102B7000DBCFF4FFF350F45C1200DACFE4FFE2CFD6
:102B8000DAFFE9CFE4FFEACFE4FF1200D9CFE6FF96
:102B9000E1CFD9FF1200010EDB50EA6ADC0FE96ECB
:102BA000010EEA221200DF50EA6AC90FE96E010E37
:102BB000EA221200E5CFEAFFE5CFE9FFE5CFDAFF31
:102BC0001200050E08C0DBFF060E09C0DBFF120075
:102BD000DF50186E196A086E19C009F01200DBCFB9
:102BE00009F0030EDBCF0DF0040EDBCF0EF00FEF7C
:102BF0001FF0DBCF09F014C00DF015C00EF00FEF81
:102C00001FF0E96EDACFEAFF000ED880EE54000E16
:102C1000ED541200DE5208C0DEFF09C0DDFFDD52B8
:102C20001200FA0EDBCF08F0FB0EDBCF09F012002A
:0A2C3000010EDBCF08F0020E1200C7
:062C3A0061EC1CF0A09407
:102C40000F015F6B626A536B5BEC1CF0E5EC1BF0F1
:102C5000DF6ADF50146E156A080E145C000E1558FA
:102C600010E2DF50040DF3CFE9FFF4CFEAFF000ECE
:102C7000E926020EEA22EE6AEE6AEE6AEE6ADF2AC0
:102C8000E8D7648C0F015C6B6498649C62A607D0E3
:102C900062960001D06BD56BD66BD76BF7D700016E
:102CA000010EE76FE86FE96BEA6BDD6BDF6A020E1E
:102CB000DF5C11E2EA6ADF3464EC1CF0EA22EE6ABF
:102CC000ED6AEA6ADF346BEC1CF0EA22EE6AED6A28
:102CD000AEEC1BF0ECD70001080EC86F020EC96FF6
:102CE0000F01160E536F0201200E026F020E036FCA
:102CF000080E016F840E006F0001BE6BBD6BE552C4
:102D000080EF1BF061EC1CF00001BD510BE1646A27
:102D1000606AE5EC1BF064B602D06486FCD7000163
:102D2000010EBD6FBD0508E164BA06D0626A606A33
:102D300060806088020EBD6F6250040B05E0605039
:102D4000040B02E062941FDB64B23ED06250010BC0
:102D500008E06050010B05E070DF0001040EBD6F5C
:102D600062906250100B05E06050100B02E001DB36
:102D7000629862AC08D060AC05D0FDEC1BF0730E1D
:102D80006DEC1BF0629C6250200B04E06050200B45
:102D900001E0DEDA6250020B0CE06050020B09E049
:102DA000FDEC1BF0E6687F0EE66E72EC1CF00F0186
:102DB0005F6B040E0001E76EBD19E8AE02D0E73488
:102DC00002D0E750BD5D02E2A1942ED060A62BD0C8
:102DD000DF6A040EDF5C27E262A625D063CFDEF057
:102DE0000001DE51780BE842E842E842DF6F62966C
:102DF000DEB504D0DF5179EC1CF003D0DF517EEC5E
:102E00001CF0EA22EF70DF5102E1C9DA0AD0000EAD
:102E1000E66EE66ADE0EE66E000EE66E720E6DEC93
:102E20001BF0DF2AD6D7A194E55280EF1BF035ECDA
:102E30001CF0FD0EDBA403D0E66AEDEC1BF0FD0EEA
:102E4000DBA204D0010EE66EEDEC1BF0FE0EDB50B3
:102E5000156A530F146E0F0EDFEC1BF071EC1BF0B4
:102E6000FD0EDBCFEFFF020EE15C02E2E16AE5520C
:102E7000E16E80EF1BF035EC1CF0FD0EDB5003E043
:102E800068EC1BF002D09FEC1BF0CBEC1BF0D9CF11
:102E9000E9FFDACFEAFFEE50ED1003E1F36AF46ADE
:102EA00028D071EC1BF08DEC1CF0FB0EDBCFEEFF9D
:102EB000FC0EDBCFEDFF71EC1BF0EE52FA0EDBCF18
:102EC000EFFF400E83EC1CF0880E92EC1CF0FD0E20
:102ED000DB5003E068EC1BF002D09FEC1BF0EA2211
:102EE000EF74DECF14F0DDCF15F014C0F3FF15C082
:102EF000F4FF020EE15C02E2E16AE552E16E80EF6E
:102F00001BF035EC1CF0FE0EDB5003E143EC1CF033
:102F100009D0A4EC1BF023EC1CF0A4EC1BF0010F77
:102F200023EC1CF0020EE15C02E2E16AE552E16E84
:102F3000E7D3E1DB64A816D054EC1CF0400EEE168B
:102F4000EE6AEE6AEE6A54EC1CF0EE7CC1DBEA221B
:102F5000EF74400E146E54EC1CF01450EF1654EC49
:102F60001CF0EF7CCDD30001E75122E1010EE76FA9
:102F7000E8511EE1010EE86F020ECD5D07E1B6DB00
:102F8000EE52EF6AB3DBC80EEF6E1200CD0510E112
:102F9000E06BC2DBEE52080EEF6EBEDB2FEC1CF0D6
:102FA000BBDB840EEF6E010EE06F8EDB800EEF6EEA
:102FB00012000001E96BEA6B020ECD5D06E187ECC1
:102FC0001CF0AFDB1EEC1CF010D0D1510201265DCD
:102FD0000001D2510201275904E226C2D1F027C2D2
:102FE000D2F061D883DB9DDB81DBC80EEF6E12006F
:102FF00035EC1CF0000EDE6E020EDD6EA5DB040D5E
:10300000F4CF15F0D9CFE9FFDACFEAFFF350EE267F
:103010001550ED2266DBEF9EFD0EDB5002E18FDBEB
:1030200001D056DBEA22DECFEEFFDDCFEDFF59DB2C
:10303000EF9C57DB040EE926000EEA22EF8C020E0D
:10304000E15C02E2E16AE552E16E5AD36498000164
:10305000D0BF0DD0D5AF09D0020ECD6FEA5101E13E
:10306000A8DF0001E86BE76B120043EF1CF00201E0
:1030700020AF0DD00001010ECD6FE95101E199DFC4
:103080000001E86BE76BE6510DE1B3EF17F00001CB
:10309000020ECD6F19DB840EEF6EE86BE76BE65125
:1030A00001E161DF120061EC1CF0080EDF6E00012F
:1030B000D15D000ED2590AE2D1C0DFFFCC5102E14E
:1030C000010E03D0CC0502E1020ECC6FDF50156A71
:1030D000E850D15DD16F1550D259D26F07DBEE5257
:1030E000DFCFEFFF280EDA6F020EDB6FD0B10DD00D
:1030F000DF5017E0CEC0F6FFCFC0F7FFCE2B000E9B
:10310000CF230800F5503ADBF3D7DF500AE0CEC0FA
:10311000E9FFCFC0EAFFCE2B000ECF23EF502EDB0E
:10312000F4D7E552EDD2A1DBF7DAEE52EFCFDFFFB5
:10313000DFCF14F014500001D65D000ED75902E223
:10314000D6C0DFFFDF50146E156AE850D65DD66F2B
:103150001550D759D76F010EDB6ADF50F36E010EA1
:10316000DBCFF4FFF350F45C16E2010EDB50EA6AA9
:10317000280FE96E020EEA22EF50E66ED3C0E9FF97
:10318000D4C0EAFFD32B000ED423E552E750EF6EF4
:10319000010EDB2AE2D7000ED880D655000ED75597
:1031A0000DE2B5DBBEDAB8DAEF50400B03E146DBE7
:1031B000C80E02D043DB880EEF6E12D085DA840E83
:1031C000EF6ED851D91107E005D0D9C0FAFF000140
:1031D000D851F96EFADF0001D59FE65101E1C3DE57
:1031E000020EE15C02E2E16AE552E16E89D269DB3E
:1031F0000001D08F60DB200EE66EE66AE66A000E04
:10320000E66E020E94DA648CDF6A020EDF5C02E284
:10321000A5DAFBD70EDBBF0EE66E000E88DA649CE3
:103220000001080EC86F020EC96F000EC06F020EBB
:10323000C16FC0C0C2F0C36F22C2BEF0BE5102E176
:10324000100E0BD0010EE66EE66ABE0EE66E000EA4
:10325000E66E010E42DA0001200EBD6FE55250D23B
:10326000800E0201205D38E10001C00ED06F020126
:103270002351030A1AE0010A09E0030A2BE10001C5
:10328000220ECE6F3B0ECF6F120E1ED0C4DAD80EB8
:10329000F6263B0EAADA020E0001B6DAF5CFD1F01F
:1032A000030EB2DAF5CFD2F01200030E225D0FE268
:1032B000B2DADA0EF6263B0E98DACEC0F6FFCFC0B1
:1032C000F7FF0800F5500001D16FD26B120000012A
:1032D000D06B12000001D06B1200C7DA0201286B1C
:1032E000296B20511F0B020A11E0030A0CE0010AAE
:1032F0001EE10001D08F020128810001DC0517E1E9
:103300000201288314D00001D08F11D00001D08F8A
:10331000020124BF02D0BEDA01D0C1DA3CDAC7DA3A
:1033200006E0DFD9EF50040B02E0010E286F000128
:10333000D0AF07D0280ECE6F020ECF6FD081020E15
:10334000D16F020EE15C02E2E16AE552E16ED8D192
:103350000F0153A10CD0E0D9EF50800807E1C6D986
:10336000EF50840803E1D8D98C0EEF6E5391629A26
:1033700012006084629864820001010EDD6F11DA30
:10338000750E6DEF1BF00001DD6B0BDA740EA5D925
:103390006492609462A402D06294FCD7120091DA25
:1033A000FD0E0001DE1539E17E0EDE15E8407F0BD3
:1033B000040DF3CFC0F0F4CFC1F0000EC027020E11
:1033C000C123C0C0C2F0C1C0C3F0C275A5D9EF50BF
:1033D0003C0BE842E8420D081EE1DF6A080EDF5CA4
:1033E00016E29AD9020EE926000EC2D9EF50E66E17
:1033F000DF50EA6A200FE96E020EEA22E552E7503A
:10340000EF6E8AD98ADAEE2AEF22DF2AE7D784D94B
:1034100026DA0AD807D023D805D0FD0EDE15040819
:1034200001E12CD8E5526CD10001CC6BE66BE96B65
:10343000EA6BE06BCD6B5AD9EF9EC87557D9EF9EFA
:10344000C875FCD9EF9ED06BD16BD26BD56BD66BA8
:10345000D76B51D8A6D9030E40D926EF18F0020E2B
:103460000001CD5D02E193EF18F0CD6BE05104E176
:103470002BD98C0EEF6E1200E06B120022DA36D9D7
:10348000EF50400B01E0010EDF6E0001C875080E21
:10349000BD5D0BE122C25CFF0F015C5103E0000146
:1034A000100E02D00001040EBD6FCD0513E11ED930
:1034B00038D9F9DD020E0001CC5D03E117D9840E85
:1034C00007D0DF5003E112D9C80E02D00FD9880E01
:1034D000EF6E0FD0D5AF0CD0D851D91107E005D081
:1034E000D9C0FAFF0001D851F96EFADF0001D59F6B
:1034F000CD6BE55205D102012051600BE842E84254
:10350000E842E842E842000901E0120021510C0AB9
:1035100045E00B0A3FE00C0A31E0010A22E00B0A09
:103520001EE0020A1CE0030A18E0080A10E0010A83
:103530000CE00F0A08E0030A01E012000001D08F3E
:10354000080EBD6F120030EF19F0F7EF18F0000110
:10355000BE0ECE6F000ECF6F0CD06DEF19F0CFEF17
:103560001AF024510001CE6FCF6BBF0ECE27000E94
:10357000CF23D081010ED16FD08F12000001D08FE8
:1035800002012451EA6ABF0FE96E000EEA2222C24C
:10359000EFFF120006D9020E6DEF1BF01200ABD840
:1035A000050EE1260201220510E120511F0B000942
:1035B0000CE10001D08F030E0201215D04E1000146
:1035C000010EDC6F02D00001DC6B0201225101E030
:1035D00074D020511F0B020870E124510F0B000919
:1035E0006CE024510F0B010868E3200E0001BD5D63
:1035F00064E1D08F020124BF04D04CD9CCD8D7D8F5
:1036000003D04DD9C8D8D7D8EA22020EEFCFDBFFBE
:1036100009D9010B03E1000EDF9401D0DF8424BF40
:1036200002D038D901D03BD9EA22DECFEEFFDDCF80
:10363000EDFF030E215D0CE13AD907E024BF02D073
:10364000B6D801D0B8D8EA22EF82840E6BD935D033
:10365000DF742DD906E045D8EF9E43D8EF8C09D909
:1036600002D03FD8EF8CDF74DDD8020B02E11FD906
:103670000DE0020124BF02D09AD801D09CD8EA22E2
:10368000EF923B0E146E3FD9F4D802D03B0E3BD9DB
:10369000020124510F0B156A530F146E0F0E1522E1
:1036A000030E14C0DBFF040E15C0DBFF030EDBCFDF
:1036B000E9FF040EDBCFEAFFEF90050EE15C02E2CA
:1036C000E16AE552E16E1CD022D9C9D81EEF1CF088
:1036D000FE0EEA6ADB3464EF1CF0E66EE66A72EF17
:1036E0001CF0DECFE9FFDDCFEAFF1200C8C0E9FF22
:1036F000C9C0EAFF1200D9CFE6FFE1CFD9FF12001F
:10370000E552E7CFD9FF120024510F0BE96EEA6AA8
:10371000D890E936EA361200C0C0E9FFC1C0EAFF1E
:103720001200FBD8280EEE6E020EED6E1200E66E51
:10373000F5EC1EF0146E050EE15E14501200FE0E44
:10374000EA6ADB346BEF1CF0FD0EDB50E824166EEA
:10375000FE0EDB50040DF35016241200DF50CED8BD
:10376000EA22EF6ADF50C5D8EA22EF6ADF2A1200A8
:10377000EA22EE50EFCFEAFFE96E1200E66EDAC001
:10378000E9FFDBC0EAFFDA2B000EDB23E552E7504E
:10379000EF6EDF061200EA22EECFDEFFEDCFDDFF97
:1037A0001200000EE66EE66AE66EE66A120024512A
:1037B0000F0B79EF1CF024510F0B7EEF1CF015223C
:1037C00014C0DEFF15C0DDFF1200160E616E0F0182
:1037D0009F0E5B6F7B0E606E1200FE0EDBCFE6FF6E
:1037E000F8EC17F0E552E5521200F7220900F5CF88
:1037F000CEF00A00F5CFCFF01200010EE66EE66AB9
:10380000000EE66EE66A1200F76ACE25F66ECF511C
:10381000F722080012002251F66EF76AD890F636A9
:10382000F7361200D950020FE96EDACFEAFFEF50F7
:103830001200010EE66EE66AE66A1200C2C0E9FFF7
:10384000C3C0EAFF1200040DF3CF14F0F4CF15F05B
:10385000000E1426020EB3DF840E92EF1CF05DD82A
:10386000200EEE6E020EED6E120045DF020EE12616
:103870001200020EE66EE66ADECFE6FFDDCFE6FF5F
:10388000050E6DEF1BF020DF8C0EEF6E2FDF840E28
:10389000EF6E120039DFC40EE926000E120034DF8D
:1038A000C80EE926000E120013DFB8EF1BF019DF77
:1038B000EF50800B1200BDDF540EE66E0F0E97EF37
:1038C0001BF019DFE6521200FE0BEA36E96EC80E55
:1038D000E926000E1200FE0BEA36E96EC40EE92658
:1038E000000E12002AEC15F0146E060EE15E145064
:1038F0001200EA6AE30FE96E000E1200EA6AE10FB5
:10390000E96E000E1200EDDEE850EF16120096DFB1
:10391000EE52080EEF6E1EEF1CF0020EE926000EAE
:0C392000EA221200DEDEE850EF12120076
:04392C00D9CFE6FF0A
:10393000E1CFD9FF030EE1268250010BE76E020EA4
:10394000E7CFDBFFDB500BE10001F72B140EF75D37
:1039500004E3010EF56F140EF76FF86B09D0000148
:10396000F82B140EF85D03E3F56B140EF86FF76B8C
:10397000F6510BE1F50509E1030E0101D85D17E1F0
:1039800001018A510DE08A6B12D0F60510E1F55164
:103990000EE1040E0101D85D0AE101018A5106E140
:1039A0000101010ED96F01018A6F01D08A6BF5C048
:1039B000F6F0030EE15C02E2E16AE552E16EE552E7
:1039C000E7CFD9FF1200D9CFE6FFE1CFD9FFFD0E37
:1039D000DB5003E0FD0EDB043CE1FE0EDB50060A8B
:1039E00032E0030A28E0010A1EE0070A14E0010A97
:1039F0000AE0030A2EE1FD0EDB50E8B08B8AE8B046
:103A000028D08B9A26D0FD0EDB50E8B08B88E8B02A
:103A100020D08B981ED0FD0EDB50E8B08B86E8B02E
:103A200018D08B9616D0FD0EDB50E8B08B8CE8B02A
:103A300010D08B9C0ED0FD0EDB50E8B08A8CE8B025
:103A400008D08A9C06D0FD0EDB50E8B08A8AE8A038
:0A3A50008A9AE552E7CFD9FF120071
:063A5A00020120511F0BC8
:103A6000010801E01200245101E01200060E215D60
:103A70001EE12351230A1BE0010A0CE0030A17E1AF
:103A80000001BE0514E10001460ECE6F3B0ECF6F64
:103A9000090E09D00001BE050AE100015D0ECE6FDE
:103AA0003B0ECF6F1D0ED16FD26BC00ED06F0201D7
:103AB0002051600BE842E842E842E842E84201084F
:103AC00001E0120021510B0A26E0080A19E0090A58
:103AD00011E0080A05E00B0A23E0080A21E01200C1
:103AE0000001F90ECE6F000ECF6F010ED16FD26BB9
:103AF000C10E0FD00001800ED06F23C2F9F012006A
:103B00000001FA0ECE6F000ECF6F010ED16FD26B97
:103B1000810ED06F12000001800ED06F22C2FAF029
:023B2000120091
:0E3B22001201000200000008EA2288000100E3
:103B30000102000109022900010100E0320904002C
:103B4000000203000000092111010001221D0007ED
:103B5000058103400001070501034000010600FF45
:103B60000901A10119012940150026FF00750895DA
:103B7000408100190129409100C004030904260373
:103B8000420069007400200054007200610064006B
:103B9000650020004F006E00650020004C005400BE
:103BA00044002E0034034C00450044002000430034
:103BB0004F004E00540052004F004C004C00450096
:103BC0005200200066006F00720020004D004F0080
:103BD000440045004C005300343B7A3B7E3BA43B01
:103BE0001E0EF66E100EF76E000EF86E0001090044
:103BF000F550F06F0900F550F16F03E1F06701D067
:103C00003DD00900F550EB6F0900F550EC6F09004D
:103C1000F550ED6F09000900F550E96E0900F55007
:103C2000EA6E090009000900F550EE6F0900F55031
:103C3000EF6F09000900F6CFF2F0F7CFF3F0F8CFFD
:103C4000F4F0EBC0F6FFECC0F7FFEDC0F8FF0001A9
:103C5000EE5302E1EF5307E00900F550EE6EEE0778
:103C6000F8E2EF07F9D7F2C0F6FFF3C0F7FFF4C0B0
:0E3C7000F8FF0001F007000EF15BBFD7120055
:023C7E0009C07B
:103C800013F008C012F008500D02F4CF07F0F3CF84
:103C900006F009500E02F4CF09F0F3CF08F00D0240
:103CA000F3500726F4500822E86A092212500E0247
:103CB000F3500726F4500822E86A09220EAE65EF99
:103CC0001EF01250085E1350095A13AE000C0D502E
:103CD000085E0E50095A000C08C012F008500D0280
:103CE000F4CF07F0F3CF06F009500E02F4CF09F03D
:103CF000F3CF08F00D02F3500726F4500822E86ACB
:103D0000092212500E02F3500726F4500822E86AE6
:043D10000922000C78
:0C3D1400D9CFE6FFE1CFD9FFFD0EDB5058
:103D2000A96EA66AA680A850E552E7CFD9FF120077
:103D3000D9CFE6FFE1CFD9FFE652DF6AA6B20ED0B7
:103D4000FD0EDB50A96EFC0EDB50A86E040EA66EB5
:103D5000550EA76EAA0EA76EA68202D0010EDF6EC8
:103D6000A6B2FED7DF50E552E552E7CFD9FF1200E9
:103D7000D9CFE6FFDACFE6FFE1CFD9FFE2CFDAFF16
:103D8000FD0EDB507E0BCD6EFD0EDBAC02D0CD8E7A
:103D900001D0CD9ECF6ACE6A9E90DBAE02D09D80D0
:103DA00001D09D90CD80E552E5CFDAFFE7CFD9FF76
:023DB0001200FF
:0E3DB200D9CFE6FFDACFE6FFE1CFD9FFE2CFAF
:103DC000DAFFFD0EDB507F0BD56ED76AD66AF29410
:103DD000FD0EDBAE02D0F28A01D0F29AD58EE5520A
:0A3DE000E5CFDAFFE7CFD9FF1200AC
:063DEA00FE0EE3CFE9FF2D
:103DF000FF0EE3CFEAFFE9CFF3FFEACFF4FFFB0EBC
:103E0000E35003E1FC0EE35009E0FB0EE30602E29F
:0E3E1000FC0EE306FD0EE350EE6EF1D712003D
:023E1E00056A33
:103E2000046A100EE76ED890083609360436053657
:103E30000D50045C0E50055805E30D50045E0E5005
:0A3E4000055A082AE72EF0D71200F9
:063E4A00000EF36E00EE15
:103E500000F0030E01D81200EA6002D0EE6AFCD72F
:0A3E6000F350E9601200EE6AFCD78F
:063E6A0011EE00F021EE54
:103E700000F0F86A019CF0EC1DF003EC08F0F8EC9F
:063E800008F0FBD7120060
:0A3E8600056A080EE76ED8900936B1
:103E900005360E50055C02E3056E092AE72EF7D7BA
:023EA00012000E
:0E3EA20000010203040506080A0C0F12161A8E
:073EB0001F242A3241506477
:093EB700302E302E340000000012
:103EC00000000000000000000000000000000000F2
:103ED00000000000000000000000000000000000E2
:103EE00000000000000000000000000000000000D2
:103EF00000000000000000000000000000000000C2
:103F000000000000000000000000000000000000B1
:103F1000000000000000000000FF000000000000A2
:0B3F2000000000000000000000000096
:020000040030CA
:0100000000FF
:0100010032CC
:0100020021DC
:010003001EDE
:0100050000FA
:010006008178
:0100080003F4
:01000900C036
:01000A0003F2
:01000B00E014
:01000C0003F0
:01000D0040B2
:00000001FF
